:1000000038480020BD7400000971000091740000A0
:1000100091740000917400009174000000000000D1
:10002000000000000000000000000000E971000076
:100030009174000000000000A171000091740000A4
:100040006972000049CC0100697200006972000009
:100050006972000069720000697200006972000034
:100060006972000069720000697200006972000024
:100070006972000069720000697200006972000014
:100080006972000069720000697200006972000004
:1000900069720000697200006972000069720000F4
:1000A00069720000697200006972000069720000E4
:1000B00069720000697200006972000069720000D4
:1000C00069720000697200006972000069720000C4
:0C00D00069720000697200006972000093
:0400DC00FFFFFFFF24
:1000E00053B94AB9002908BF00281CBF4FF0FF319F
:1000F0004FF0FF3000F074B9ADF1080C6DE904CE9B
:1001000000F006F8DDF804E0DDE9022304B07047F2
:100110002DE9F047089E0D4604468846002B4DD138
:100120008A42944668D9B2FA82F252B101FA02F3D5
:10013000C2F1200120FA01F10CFA02FC41EA0308A5
:1001400094404FEA1C45210CB8FBF5FE1FFA8CF7D2
:1001500005FB1E8341EA03430EFB07F199420BD9CD
:100160001CEB03030EF1FF3080F01E81994240F238
:100170001B81AEF1020E63445B1AA4B2B3FBF5F02F
:1001800005FB103344EA034400FB07F7A7420AD9F2
:100190001CEB040400F1FF3380F00881A74240F219
:1001A000058164440238E41B40EA0E4000211EB180
:1001B000D4400023C6E90043BDE8F0878B4208D94C
:1001C000002E00F0EE800021C6E900050846BDE8DB
:1001D000F087B3FA83F100294AD1AB4202D38242BD
:1001E00000F2F980841A65EB030301209846002E83
:1001F000E2D0C6E90048DFE702B9FFDEB2FA82F2D8
:10020000002A40F09180A1EB0C054FEA1C471FFA31
:100210008CFE0121B5FBF7F307FB1350250C45EAD3
:1002200000450EFB03F0A84208D91CEB050503F1BD
:10023000FF3802D2A84200F2CB8043462D1AA4B266
:10024000B5FBF7F007FB105544EA05440EFB00FE32
:10025000A64508D91CEB040400F1FF3502D2A645DF
:1002600000F2BB802846A4EB0E0440EA03409EE760
:10027000C1F120078B4022FA07FC4CEA030C20FA5C
:1002800007F405FA01F31C43FD404FEA1C4900FA4C
:1002900001F3B5FBF9F8200C1FFA8CFE09FB185589
:1002A00040EA054508FB0EF0A84202FA01F20BD91C
:1002B0001CEB050508F1FF3A80F08880A84240F267
:1002C0008580A8F1020865442D1AA4B2B5FBF9F0A7
:1002D00009FB105544EA054500FB0EFEAE4508D962
:1002E0001CEB050500F1FF346CD2AE456AD902382B
:1002F000654440EA0840A0FB0294A5EB0E05A54228
:10030000C846A64656D353D05EB1B3EB080265EBA0
:100310000E0505FA07F722FA01F3CD401F43C6E99F
:1003200000750021BDE8F087C2F1200320FA03F137
:100330000CFA02FC25FA03F395400D434FEA1C47E3
:100340001FFA8CFEB3FBF7F107FB11302B0C43EACD
:10035000004301FB0EF0984204FA02F408D91CEBAA
:10036000030301F1FF382FD298422DD9023963449B
:100370001B1AADB2B3FBF7F007FB103345EA034598
:1003800000FB0EF3AB4208D91CEB050500F1FF386A
:1003900016D2AB4214D902386544ED1A40EA014145
:1003A00038E73146304607E78646E5E61846FAE67E
:1003B0004B45A9D2B9EB020864EB0C0E0138A3E758
:1003C0004046EAE7204694E74146D1E7D0467BE73E
:1003D000023B654432E7084609E76444023842E7D5
:1003E000704700BF000000002DE9F041D0E90B3557
:1003F000866A5C193034A6428846174618D81C4DC8
:10040000A3FB050118A3D3E90023FFF769FEA41B92
:1004100020F07F40C8F8000013A3D3E90023A4FB19
:100420000501FFF75DFE20F07F403860BDE8F081F8
:100430000F4C0DA3D3E90023A6FB0401FFF750FEE8
:1004400005F1300120F07F40C8F8000006A3D3E991
:100450000023A1FB0401FFF743FE20F07F4038603A
:10046000BDE8F081AFF300808D49FD1A0700000060
:1004700000CA9A3B000000002DE9F04F8FB0002821
:1004800000F03C81AA4C94F86A6016F0010640F036
:10049000B98194F82500FF2300F0030084F826308A
:1004A0001CF076F894F86A0041072DD494F82920BE
:1004B00094F8353004EB820204EB8303D2F82C80ED
:1004C000D3F83890B8F1000F11D09948414616F092
:1004D0000DFC98F800305A0605D5062111F072FF80
:1004E000002800F0CC819248494616F0FFFB98F8AE
:1004F000003013F00E0F40F0EE80236A9BB10C2603
:1005000030460FB0BDE8F08F324604F16B01C0F306
:10051000C0001CF0A3F9FF2884F82600C6D030469E
:100520001CF050F8C2E715F097FA8246002800F058
:10053000B08115F09DFA8346002800F0AF8117F0D6
:10054000D1FA0546002800F0A681406F4FF6FF73F0
:100550002B8505F11C03002800F0978105F1680246
:1005600005F164010B9311F039FFB5F86020714B70
:1005700022F4EF6222F0070242F4887242F0010294
:10058000A5F8602095F8392002F03F0262F07F0262
:1005900085F8392095F87A2022F0070285F87A202C
:1005A00095F83C2022F0070285F83C2095F8D820E9
:1005B00022F0070285F8D8204FF01B120027C5E96A
:1005C00016230622A5F8C020C5E912776F67A5F8A3
:1005D0007870EF852F6385F83B702F65A5F8C470A0
:1005E000A5F8C870A5F8D070A5F8CC70A5F8E4708F
:1005F00085F8E670C5F80871A5F80C71A5F82071AA
:1006000014F012FD95F83A21A5F8387122F0030292
:1006100085F83A2195F87A20A5F8407122F0180261
:1006200085F87A2095F8662185F8437122F0070253
:1006300085F8662195F88621C5F844A167F345122F
:1006400085F8862195F8AE21A5F8647167F3C30299
:10065000C5E94A0100210020C5E94C0185F8AE2119
:1006600085F8D970A5F88471C5F8E070A5F8AC716B
:10067000A5F8B87117F07CFDA5F8D20017F07EFD43
:10068000D5F8BC112C4AA5F8D4000A40C5F8BC2105
:1006900017F07AFD95F8C02160F3020285F8C021B9
:1006A00017F078FD0B9B236295F8C031C5F8C47133
:1006B00060F3C503C4E918ABC5E97477C5E972777F
:1006C000C5E905772F70ED6185F8C0311DF00AF896
:1006D000002840F0D68094F824300121C3F342036F
:1006E0000DF133008DF8333011F0F8FF30BB236A81
:1006F000002B3FF404AF15F0C7FF00E70C4B93F855
:100700006A6016F001063FF4FBAE1A6A5AB192F81D
:10071000201041F0020182F820101B6A93F820306B
:10072000D8073FF5ECAE0FB0BDE8F04F15F0EEBFC7
:1007300098230020480148010000FFF699F80110B5
:100740000246404616F086F85949B4F868903123BD
:100750000025A360A0FB010153A3D3E90023C4E952
:10076000055525706560E560FFF7BAFC206113F060
:10077000D5F80746B9F1000F08D198F8005005F0F8
:100780000F05A5F10105B5FA85F56D0994F824006A
:1007900065F3000010F0010584F8240037D02369C8
:1007A000444ADFF814910493002002250DF1340827
:1007B000019305920321CDE9020006943B46009087
:1007C000CDF82080CDF81C902A460D9512F0DAFF66
:1007D000414615F0F7F9002889D1384A05924AF2C6
:1007E000D8320092CDE90300CDE90100CDF81C908C
:1007F000CDF8208006943B46012203210D9512F08E
:10080000C1FF2FE0002630460FB0BDE8F08F23690E
:100810002B4A2C48049303F24713A9FB00010694CA
:1008200002951360912303FB0911234B0793214B7E
:1008300005934FF6FF7309924FF0020903930DF1F0
:10084000340819A3D3E90023CDF83490CDF82080E3
:10085000FFF746FC3B46CDE900504A4628460321B7
:1008600012F03AFF414615F0ADF900287FF43FAF92
:1008700094F86A3043F0010384F86A3040E61226A7
:100880003EE615F001FF03263AE605F16C006867C5
:1008900064E6072634E6584615F0F0F8504615F0A1
:1008A000E1F807262CE600BF8D49FD1A070000007D
:1008B00000CA9A3BCD680100C950010011640100D3
:1008C0000C240020002AE78470B590F824308AB008
:1008D000C3F342030D46044601210DF123001646E1
:1008E0008DF8233011F0FAFE71780246284615F093
:1008F000B1FF1D491AA3D3E90023A0FB0101FFF7B3
:10090000EFFB23699842054620D21B1A0022019270
:10091000164A0293164BA21AA3FB02320221920935
:1009200000230A4409AE099112490591CDE9033328
:100930000321D2B206960093184612F095FF314675
:1009400015F040F948B925610AB070BD02D9C21A44
:100950000023DCE700200AB070BD0C200AB070BD97
:100960008D49FD1A0700000000CA9A3B9823002019
:1009700009CB3D8DC95001002DE9F04FC38D468E46
:100980001E4490F80E31B6B2314413F007038BB019
:1009900004461FFA81F940F08F81B0F8E870A9EBA6
:1009A00007011FFA81F9090400F1F981904690F9D5
:1009B0003920002AC0F22C8194F8E43084F8E53024
:1009C00094F8842194F8853194F80C1184F80D1171
:1009D000934206D094F8863103F00F03062B00F003
:1009E0004682A74BD4F808511A68944204BF0022EB
:1009F0001A60002D00F030812868002800F02C815A
:100A0000628DB4F810314168C4F808119342B4F80B
:100A1000122100F00581B4F81411B4F828C0EB835A
:100A200018232B710023A5F806C02A8469842B772C
:100A3000294615F029F815F031F8A368002B0ADAD9
:100A4000E168626823F0004391422CBF88449044DF
:100A5000A360A8EB0308608DB4F8105110FB09F0F7
:100A600080B2B0FBF5F115FB01F39BB298421FFA7F
:100A700081FA80F099811B1A824940F2E24003FB1F
:100A800000F0A0FB01017CA3D3E90023FFF728FBC2
:100A900020F07F408044E38D1F4494F93930BE1B21
:100AA000564440F2E247002BE68507FB05F6C0F20C
:100AB0008D81754A7549764840F69C4301F032FCB9
:100AC000404080F311884FF0030002DF0027B34657
:100AD000704AB4F814317049B4F81201A085324458
:100AE000B2FBF6F2A4F8C62042F2107202FB0363D6
:100AF0003144013BB1FBF6F1B3FBF6F6B4F810312B
:100B000063858AB2831D9A42A4F8C260A4F8CE20FD
:100B100004DDC0F57F43FA331A4492B294F80E31E3
:100B2000A4F8CA201B0744BF0023A4F8C430022144
:100B300001201EF09DFD002202218146012011F0BE
:100B40009DFC56494FF4F072204611F027FC00F14D
:100B5000030A5FFA8AFA524B0094524601210020A0
:100B600012F09AFE30F002030CD0474A4D49484833
:100B700040F6CB4301F0D6FB404080F311884FF0A4
:100B8000030002DF3F4EABFB066B3BA3D3E9002320
:100B900030465946FFF7A4FA089420F07F450694A2
:100BA000414823690493A5FB0001072303FB0511BA
:100BB0003E4B07933E4B0593301A4FF6FE736BEB9B
:100BC000010103934FF47A720023FFF789FA434639
:100BD000CDE90150009752460121002012F0D2FDCC
:100BE00030F002030CD0284A2E49294840F6E5434C
:100BF00001F098FB404080F311884FF0030002DFC2
:100C0000B9F1000F40F02D8100200BB0BDE8F08F4E
:100C100090F8D920002A3FF4CFAE80F8D930CFE643
:100C2000A18D9142B4F814117FF4F7AE40F2E24C7A
:100C30000CFB03FE42F2107C0CFB01EC0CF1FF3CC0
:100C4000BCFBFEFCB4F8C2E01FFA8CFCE6457FF466
:100C5000E4AE01232B71EBE60B4A16490C484FF426
:100C6000426301F05FFB404080F311884FF00300C6
:100C700002DF2868C4E600BF8D49FD1A07000000A6
:100C80002C24002000CA9A3BC8750200907E020006
:100C9000F46B0200FF5962027FC3C901D014002027
:100CA0004D730100A87602008D49FD1AF57201000E
:100CB0008DB9010094760200012014F0F5FE06467D
:100CC000002800F0E2807E4811F032FB0546002843
:100CD00000F0DB807B4B1A68002A00F0CE8014F015
:100CE00001FF2B793268D4F80811516043F00303F7
:100CF000C4F8086100202B710C236B71E87194F823
:100D00001C312B72704AD4F81831A18DA2FB032339
:100D10009B0AA5F80930B4F81031A5F80B30B4F8E7
:100D2000123194F80E21A5F80D300631B4F81431C3
:100D3000A5F80F304944D4F8C43189B260F30202F7
:100D4000A4F8E81084F80E21A5F81110C3B194F8A6
:100D50006621960714D494F8BF21D00710D4D4F894
:100D6000D0219342D4F8C82100F0928062B91A7958
:100D700002F00302032A00F09880C4F8C83105E0AD
:100D8000D4F8C821002A7AD0D4F8CC311A682A6065
:100D90001D602B68C4F8CC510BB9C4F8D4516FF066
:100DA00076000BB0BDE8F08F05FB110140F2E24385
:100DB000464889B203FB01F1A1FB00013EA3D3E940
:100DC0000023FFF78DF9A8EB000864E6226CA36C02
:100DD00002FB1933A3641CF0D7FC054694F8D80035
:100DE000C0F3C2001CF0D2FC054406FB05F5384BED
:100DF00094F81C2105F5742505F23F25A3FB053564
:100E0000AD0C07FB02F2A36C226505FB0AF0720829
:100E10000344963A934228BF13462564A6EB050B7C
:100E20002A4DC4E911230023C4F8E030A0FB0501DA
:100E300021A3D3E90023FFF753F92349A8EB0008C6
:100E4000D4F81801A1FB0030800A07FB00F01AA3B8
:100E5000D3E90023A0FB0501FFF742F920F07F470B
:100E600036E601220221104611F008FBCCE60023F1
:100E700084F88521A4F8C830B3E51C602FE72B6007
:100E8000C4E97155C4F8CC5186E76FF06800BCE640
:100E90001968C4F8D011002A7FF476AF1A682A6066
:100EA0001D602B68C4E9725576E7DA79032AF5D01C
:100EB0000A2A7FF462AFF1E78D49FD1A07000000AE
:100EC000C02400202C2400205917B7D100CA9A3B17
:100ED00083DE1B43000000002DE9F04F0B68D2F8C1
:100EE00000801B6897B00C460A93037F00F11E0137
:100EF000C3F380130546174614A806228DF8473021
:100F000006F0A4FC94F81190B9F1FF0F0DF1480B15
:100F10005BD05A460DF1470148461BF049F89DF851
:100F2000473002338DF847302946032251F82E6BA3
:100F300007F1080007F1040A06F088FC07F118031E
:100F4000042205F12A0150460B9306F07FFC0B9B0F
:100F5000052205F13A01184606F078FC0B9B0521A5
:100F6000184611F0BBFB7B7F95F83F2000F03F0057
:100F700060F305037B77C2F30403BB77AB8EFB8181
:100F8000012899B202F01F0305D91B3303F01F0398
:100F90000B2B00D8F9B90A9BEC6800225A6197F82C
:100FA0002030304662F30003012687F820302946BE
:100FB0002E7114F069FD20682671214614F064FD3D
:100FC00014F06CFD17B0BDE8F08F062214A9584646
:100FD00006F03CFCA8E723680020586095F837002D
:100FE00095F8363043EA00233B8298F8D83052090E
:100FF00062F3C5036A8E0D9240F2E24202FB01F0F9
:1010000088F8D8300B901CF0BFFB0C9098F8D800F3
:10101000C0F3C2001CF0BAFB0C9BC74903440B98F9
:1010200000FB03F303F5742303F23F23A1FB032327
:101030009B0C7B6295F83130398A40F2E24203FB27
:1010400002F24308963BBA63BB622B8FBB4AADF8F2
:101050003A309E46BA4B844603440244B3FBF0F355
:10106000B2FBF0F242F21070A8F8C6201FFA8EF21E
:1010700000FB02C2013A881DB2FBFCF2A8F8C220B4
:101080009AB28242A8F8CE2004DDC1F57F41FA3140
:101090000A4492B2A8F8CA205146042208F1DC00A2
:1010A00006F0D4FB2B4613F81C2FC2F34011DA07CD
:1010B0000F910C9100F11A814FF48073AB830A9B5E
:1010C00093F826001BF0E4FC002800F0EE800622D6
:1010D00005F1240105F12B0006F0B8FBB9F1FF0F73
:1010E00000F0EA8014A9062205F1250006F0AEFB07
:1010F0009DF84730AB775946062205F11F0006F0F0
:10110000A5FB98F8D830FA896A863A8AAA86C3F38A
:10111000C203BDF83A2085F83830EA86404616F01A
:10112000EDFC2946B881E8806568304614F0ACFCD7
:10113000BB89EB801B232B710C9B2E68002B40F08E
:10114000C2809DF83C302B772946304614F09CFC39
:1011500014F0A4FC97F84500B7F84050B7F8426087
:10116000012100F007001CF01FF92E4406F5E1767E
:101170003118824673484FF000093123C8F808300F
:10118000A1FB00016AA3D3E90023C8F80490C8F8C2
:101190000C90FEF7A5FF0B9B7E6A0D9AE5689E1BDF
:1011A00040F2E24303FB025520F07F4005F2B245D6
:1011B000A5EB0A034A460221C8F8100001200B9350
:1011C00011F05CF90A9D284615F04CFD821C5E4B1F
:1011D0000095D2B24846012112F05EFB012800F0D2
:1011E00092800A9B93F82430DB0777D4404616F0B0
:1011F00085FCDFF85091A6FB09564DA3D3E90023E7
:10120000834631462846FEF76BFFA368CDF8188069
:101210000BF10304A3F13A0B4C4B07934C4B059392
:101220004FF4E4730893D8F8103020F07F47494812
:101230004FF0000ACDE903A3A7FB00010723281AFA
:1012400003FB071166EB01014FF47A720023FEF7EE
:1012500047FF0B9BCDE90170A3FB090134A3D3E940
:101260000023FEF73DFFE4B220F07F4000905B4694
:1012700022460121504612F085FA30F002030CD0CC
:10128000354A3649364840F2C91301F04BF8404020
:1012900080F311884FF0030002DF01220221104683
:1012A00011F0ECF817B0BDE8F08F0146062205F109
:1012B0002B0006F00BFB11E70622002105F12500AB
:1012C00006F004FB14E77B7F43F040037B77504636
:1012D0001AF07AFC0123F8832B7735E700230122EB
:1012E00000931846114612F0D7FA7FE71A4A1D49B3
:1012F0001B48F12301F016F8404080F311884FF0AD
:10130000030002DFD8E614F09BFC0A9B83423FF403
:1013100068AF114A1449124840F29F2301F002F8C5
:10132000404080F311884FF0030002DF59E700BF0F
:101330008D49FD1A0700000083DE1B43FF5962023E
:101340007FC3C90100CA9A3B51B9010021B901000C
:101350008DB901008D49FD1ABC770200A876020004
:10136000F46B02003C7202001878020000000000DA
:101370004368186888424DD9642A4BD85B682DE9C8
:10138000F04F080103EB011187B08E681F580B7BEB
:10139000D1F80490029306FB02F4254AA2FB042430
:1013A0006409BB6804AA5B68494638469847002828
:1013B00036D1DDE9045BA6FB05A306FB0B365046E0
:1013C00019A3D3E900234FF0FF383146FEF788FE1A
:1013D000D045DFF860A003907AEB06011DD3A4FB93
:1013E000056504FB0B5410A3D3E9002330462146C6
:1013F000FEF776FEB0457AEB040103460DD3B868DC
:10140000029C00940468039A49463846A04707B0F6
:10141000BDE8F08F6FF0150070476FF08500F6E7BC
:101420006FF00400F3E700BF00CA9A3B0000000021
:101430001F85EB51FFC99A3B2DE9F04FDFF8D8909B
:101440008DB00DF12F0104460DF12E0014F094FB28
:101450009DF82EA09DF82FB012F060FAD9F8005038
:101460002E4BA5FB0356804629A3D3E9002328462B
:101470003146FEF735FE294B069420F07F44D9F81B
:101480000400A0FB0301264B0593002720A3D3E90A
:101490000023CDE90777FEF723FE20F07F40CDE95A
:1014A000037020480723A4FB0001281A03FB041142
:1014B00066EB01014FF47A720023FEF711FE0097EC
:1014C000CDE9014043465A465046032112F05AF9ED
:1014D00030F0020404D06FF08B000DB0BDE8F08F47
:1014E0001148124A002322F0DFFD20B9D9F80C0080
:1014F0000DB0BDE8F08F9DF82F209DF82E000094D0
:101500002346032112F0C8F96FF07300E5E700BF2E
:101510008D49FD1A07000000542D002000CA9A3B97
:10152000BD1102008D49FD1A642D0020447B0B0083
:1015300038B50F4D044612F0F1F9A96812F0F0F930
:10154000696803460B48B3FBF4F4A1FB00011C449B
:1015500005A3D3E90023FEF7C3FD20F07F408442BA
:1015600094BF0020012038BD8D49FD1A07000000FE
:10157000542D002000CA9A3B704700BF014822F05A
:1015800069BF00BF6002002000B583B023F0A0FF58
:101590004A014FEA401CBCEB000C42EAD06262EB0D
:1015A00001024FEA8C039200181842EA9C7241EB48
:1015B0000201C90041EA5071084BC0F3103040EA03
:1015C000414018604FF4004200230548CDE9002354
:1015D00024F032F8002003B05DF804FBB0180020BE
:1015E000A00A002010B523F073FF4A014FEA401C07
:1015F000BCEB000C42EAD06262EB010292004FEABF
:101600008C031B1842EA9C7241EB02010A4C0B4A04
:101610002078C90041EA5371C3F3103343EA4143D0
:10162000136040B100231846237000F01FF9BDE895
:10163000104000F0E9B810BDF22E0020B0180020D4
:1016400000B585B023F044FF4A014FEA401CBCEBD3
:10165000000C42EAD06262EB01024FEA8C03920076
:10166000181842EA9C7241EB02011D4BC9001A682E
:101670001C4B41EA5071C0F3103040EA4140801ADF
:10168000984214D847F23053984202D805B05DF81A
:1016900004FB154B1A78012AF8D0012210461A7063
:1016A00000F0E4F805B05DF804EB00F0ADB80E4BC7
:1016B0001A78022A06D0022210461A7000F0D6F8D4
:1016C00000F0A2F80020CDE90100062201AB039052
:1016D0008DF804200ECB05B05DF804EB03F028B8BC
:1016E000B018002040771B00F22E002070B5204C6F
:1016F0008CB0FF2531E0DDE90416039800F07AF89C
:10170000B6FA86F6760907908DF818508DF82060A5
:1017100023F0DEFE4A014FEA401CBCEB000C42EA1B
:10172000D06262EB01024FEA8C039200181842EA81
:101730009C7241EB0201C90041EA5071C0F31030C4
:1017400040EA4140C90B8DE8030006ABCDE90A0130
:101750000FCB00F097F800F057F80022002303A900
:10176000204622F02BFA0028C5D00CB070BD00BF77
:10177000BC0B002000B585B083F00103CDE9011258
:10178000039300220023054801A922F0BBF9044875
:1017900022F060FE05B05DF804FB00BFBC0B00202A
:1017A000B418002070B50D4621F054FEB8B183681E
:1017B000DE6804461EB12B4606220021B0470A49C6
:1017C0000A4822F01DFEA36809491B682046984775
:1017D000A3689B6833B120469847002070BD6FF026
:1017E000150070BD184670BDED160000B41800203D
:1017F000751700000530034B01EBC00153F82100C1
:10180000704700BFCC6202002DE9F041154F164C25
:101810003F1BC7F3C707054667B14FF000082268B2
:101820002B689A42284607D008F10108474504F181
:101830000804F4D100260BE085F8048063681B6877
:10184000984701280646F5D0022807D00028EBD09B
:10185000284624F045FA3046BDE8F081002630469F
:10186000BDE8F08114810200FC80020010B504463E
:101870000C2024F03DFA024A0260047210BD00BF41
:101880006864020084B010B502AC84E80F00202028
:1018900024F02EFA8446094B4CF8083BA646044631
:1018A000BEE80F00ACE80F009EE803008CE80300E0
:1018B0002046BDE8104004B0704700BF88640200B5
:1018C0000268034B9A420CBF08300020704700BFEB
:1018D000886402000020704782B008B502A981E840
:1018E0000C00006821F0B6FD4368186801F0A4FB05
:1018F00082B08DE80C00002002B0704700207047D5
:1019000082B010B502A981E80C0004460F4821F00E
:10191000A1FDA8B16268022A04D00020BDE81040F1
:1019200002B0704783689B686BB198470028CCBFB2
:10193000002001206060BDE81040002002B0704728
:101940006FF00400EAE76FF08500EFE7D46402006F
:1019500082B070B504A981E80C0005461C4821F04E
:1019600079FD002831D06B68012B044608D0022B8A
:1019700016D06BB16FF08500BDE8704002B07047C3
:1019800083681B68002BF5D0BDE8704002B0184793
:1019900083685B68002BEDD0BDE8704002B018474B
:1019A00083689B685BB19847002808DDA3685B6883
:1019B000002BDFD02046BDE8704002B01847A36876
:1019C0001B68002BD6D02046F5E76FF00400D3E764
:1019D000D464020010B504460C2024F089F9024AB0
:1019E0000260047210BD00BF1C650200014822F0B5
:1019F00031BD00BF7002002010B5044682B083687C
:101A00002C21DB68984780B9A3686A461B692C21A2
:101A10002046984748B9094C009B22789A4204D046
:101A2000D8B2207001F062FB08B102B010BD20787E
:101A3000FFF7D0FFFFF7E8FE02B010BDF32E002045
:101A4000014B1868FFF7D8BFC418002010B582B04A
:101A50000F48104C21F0FEFC2060A8B121F03EFDA3
:101A600090B12068FFF7C8FF044610B1204602B0CD
:101A700010BD4FF4F01200230748CDE9002323F0F6
:101A8000DBFD204602B010BD6FF01204EEE700BF90
:101A900020650200C4180020D80A002010B50446B2
:101AA0000C2024F025F9024A0260047210BD00BF28
:101AB0004C65020008B5FFF703FF50B1027A0079C8
:101AC0001AB1BDE8084000F017B9BDE8084000F0C1
:101AD00023B908BD704700BF10B584B0012402943B
:101AE000CC680194BDF8184000940DF0A7FB04B039
:101AF00010BD00BF10B584B0BDF818400094044C70
:101B00000194102402940DF099FB04B010BD00BFA5
:101B1000DC18002000B583B0064B00930648074947
:101B200005234FF4247222F0B9FC002003B05DF8C5
:101B300004FB00BF04660200700D0020102F00207F
:101B400070B50F4D0F4E8AB00CE005F0BFFE1023AC
:101B50000DEB030120460596CDF818D0ADF81C30EA
:101B60000DF048FC002269460023284622F026F8A2
:101B70000446182204A82146002CE6D00AB070BD05
:101B80008C0B00208C6502002DE9F04192B0CE68EC
:101B9000BDF860C00CEB0305ADB2132D7DD80CEB86
:101BA000CC000CEB4000114630441A461C4605F0B0
:101BB0004DFE0A2D03D8204612B0BDE8F081354411
:101BC00015F8013C002BF6D1D6F8022006F10A01E7
:101BD000CDE903120DF11808D6F806200592C8E9E0
:101BE000013337780693C8F80C3023F071FC844633
:101BF0004A014FEA4C13B3EB0C0342EADC6262EB9E
:101C000001029D00920015EB0C0542EA937241EB34
:101C10000201CB0043EA557370780797C5F310357E
:101C200045EA4345DE0BCDE908560DF1280CF0B12D
:101C300098E80F008CE80F00CDE90C560B979CE854
:101C40000F000EAD85E80F00039821F003FC00287B
:101C5000B1D083689E68002EADD012AB13E90300AB
:101C60008DE8030003A895E80C00B047A3E798E8C7
:101C70000F008CE80F00CDE90C560B979CE80F0085
:101C80000EAD85E80F00039821F0E4FB002892D008
:101C90008368DE68002EE0D18DE76FF006008BE7E9
:101CA00010B584B01049114840F6CD42002321F010
:101CB00029FF044628B110F10B0F09D0204604B0CB
:101CC00010BD0B490B4822F0A1FB204604B010BD0B
:101CD000002200236946054821F070FFFFF7E0FF6E
:101CE0000446204604B010BDDC1800208C0B0020F8
:101CF00020030020700D0020C208064900F00700F4
:101D000011F802C0012303FA00F040EA0C008854E5
:101D1000FFF7C6BFDC180020C10810B4064C00F065
:101D20000700635C012202FA00F023EA000060541D
:101D300010BCFFF7B5BF00BFDC18002070B582B043
:101D400015460C4601AA0B491E4602F0F3F910B1E4
:101D5000019B13B1002002B070BD072C07D10649CA
:101D600022463046A84700EAE07002B070BD6FF02E
:101D70001500F0E764660200EC18002070B592B020
:101D800005460AF0BDF80378044607AE032B43D896
:101D9000DFE803F030352B022249304605F0FCFC29
:101DA000A379059662780492A2780392E27802926F
:101DB00022790192617900911B4A1C4C1C4E1E2114
:101DC0000AA800F0C3FA0023317823701948836809
:101DD0001B690BB1202298473678AEB12078FFF707
:101DE0005DFEFFF711FD12B070BD1349304605F0DE
:101DF000D3FCD5E71149304605F0CEFCD0E71049B9
:101E0000304605F0C9FCCBE728460AF079F80146D0
:101E1000304607F093FCE1E70A4A0A21304600F019
:101E200095FABDE7286602003C660200F52E002008
:101E3000F42E0020F05E02001C6602000C66020018
:101E4000146602003466020038B50C1E114D0CBF3A
:101E5000012300232B7006D00020FFF71FFEBDE8F2
:101E60003840FFF7D1BC0AF04BF8072201460A4878
:101E700002F08AF8094B1978094883681B690BB18D
:101E8000224698472878FFF709FEBDE83840FFF75B
:101E9000BBBC00BFF52E002060660200F42E0020BF
:101EA000F05E020030B593B00AF02AF803780446D9
:101EB00007AD032B29D8DFE803F0231E19021649CA
:101EC000284605F069FCA379059562780492A2780A
:101ED0000392E278029222790192617900910F4A8D
:101EE0001E210AA800F032FA13B030BD0C49284672
:101EF00005F052FCE7E70B49284605F04DFCE2E708
:101F00000949284605F048FCDDE7084A0A21284629
:101F100000F01CFAD7E700BF286602003C6602000A
:101F20001C660200146602000C66020034660200A1
:101F300030B593B009F0E4FF0378044607AD032BF6
:101F400029D8DFE803F0231E19021649284605F0B8
:101F500023FCA379059562780492A2780392E27833
:101F6000029222790192617900910F4A1E210AA8FA
:101F700000F0ECF913B030BD0C49284605F00CFC1C
:101F8000E7E70B49284605F007FCE2E70949284640
:101F900005F002FCDDE7084A0A21284600F0D6F9E0
:101FA000D7E700BF286602003C6602001C660200FC
:101FB000146602000C6602003466020008B504488C
:101FC00002F062F80021BDE80840084607F0B6BB01
:101FD00060660200F0B5002089B007F039FD0446C4
:101FE00010B1204609B0F0BD02F0A2F92E4802F06F
:101FF0005FF804460028F4D12C482D4F01F0FAFF79
:102000002C4801F0F7FF2C4809F03CFE2B480394C4
:10201000072203A9CDF80F4005F0F8FB00283DD1B9
:102020003E7846BB264D00960FCD0DF10C0CACE86A
:102030000F002B68CCF8003022493346032203A856
:1020400008F0E2FD204D284621F048FA0028C8D0CB
:10205000AE680021736828469847012173682846B6
:10206000984739783369002BBBD0202228469847FF
:10207000204609B0F0BDC122002304923021F02295
:10208000CDE9051200930F49ADF80C3003A80322E7
:102090008DF80E30079308F0B7FDD3E7012307480A
:1020A0003B7007F043FDBBE7680300207466020045
:1020B000F42E00207866020048030020EC1800206F
:1020C000106202007C660200F05E020000B583B080
:1020D00000230B488DF807300DF10701FFF762FB75
:1020E00010B103B05DF804FB02F022F99DF807304F
:1020F00013B9FFF76FFFF4E7FFF760FFF9E700BFE1
:1021000094660200BAB102F1FF3C10B40A4C4A1EB8
:102110008C4412F8013F584003099445E35C83EA7C
:102120000010C0F30311C3B2605C80EA0310C0B2B8
:10213000EFD110BC704770479C66020079B32DE95F
:10214000F047DFF860A00546032400206423B2FBBB
:10215000F3FC9A425FFA8CFEAAFB036700F10109C7
:1021600001F1FF3603FB1C280EF1300E02D2012BC9
:1021700000D078B116F0FF0105F801EB5FFA89F0A5
:102180005FFA88F24FEAD70302D0013CDFD12C700E
:10219000BDE8F0875FFA88F2C7F3C703F5E70846A2
:1021A000704700BFCDCCCCCC70B50C4604F0010517
:1021B000014605EB5400984254D86608002D40D1E2
:1021C000002E3DD002F1FF3C01EB460E19E0A2F1DA
:1021D0005703DBB21B01DBB28CF801304C78A4F161
:1021E0003002D2B2092A06D9A4F16102052A1AD80E
:1021F000A4F15702D2B2023113448E450CF8013FCC
:102200001ED00A78A2F13003DBB2092BE2D9A2F189
:102210006103052BDBD9A2F14103052B22D8A2F1E2
:102220003703DBB2D6E7A4F14102052A1AD8A4F19C
:102230003702D2B2023113448E450CF8013FE0D18F
:1022400070BD0C78A4F13003DBB2092B06D9A4F1E0
:102250006103052B08D8A4F15703DBB202F8013B58
:102260000131ADE7002070BDA4F14103052BF9D881
:10227000A4F13703DBB2F1E740B1436803F0030395
:10228000022B06D0032B04D0012B05D06FF01500D4
:1022900070470368002BF9D000238360184670470D
:1022A0004268816002F00302022A034604D0032A36
:1022B0000BD000205860704710B5006800245C60A7
:1022C00010B123F0E3FC204610BD006800225A60E4
:1022D000704700BF002070470B68024A0133126844
:1022E0000B601047800300200A68B2B110B4D1E936
:1022F0000143A34208DA04F1FF3C634508D05C1CAB
:102300008C60D05410BC7047013310BC8B60704798
:102310008C600021D15410BC70478B6801338B60F6
:10232000704700BF0FB410B582B004AB002453F85F
:10233000042B0548009301A9019400F0E9FB02B0C9
:10234000BDE8104004B07047D92200000CB430B58D
:1023500085B008AB002553F8042BCDE90215CDE973
:102360000030044601A9064800F0D2FBDDE9023046
:102370009842B8BF255405B0BDE8304002B0704760
:10238000E92200002DE9F047078B3D07064610467D
:1023900000F1E98007F0070302291C4651D19AB2E7
:1023A000002B7DD13368002B7ED027F007033269E4
:1023B00043F006039BB2D2F80090338302464FF0FD
:1023C0000608444500F08580B168002900F081804E
:1023D0004FF0000A554643F00803338382F3118817
:1023E000BFF36F8FB16879B10C684F6853464246AE
:1023F0003046B84744B1214624684F6853464246A8
:102400003046B847002CF6D15DBBB9F1000F02D0C1
:1024100073493046C8474FF02003EFF3118283F32E
:102420001288BFF36F8F338B23F008039BB21046E3
:102430003383DC0627D523F010018FB2378303F0F6
:102440000704D6F814A0BAF1000F7EDB631F012B3E
:102450005BD9042C00F094803B46EAE73D46002D12
:10246000D3D02846514650F8047BFFF719FF0446A5
:102470000028F3D029465346424630463D46A04701
:10248000002DEED1C1E799060FD523F020018FB2C0
:1024900003F0070407F0070337839AB2002B81D0BB
:1024A000022A21D1738B33B1024682F31188BFF324
:1024B0006F8FBDE8F087326927F007034FF00408FB
:1024C00043F004034445D2F80490338302467FF47A
:1024D0007BAFB9F1000FACD043F00803338380F336
:1024E0001188BFF36F8F93E7012ADDD13368002B8A
:1024F000DAD0326927F0070343F00503D2F80890D9
:10250000338302464FF005085BE70021062C35684F
:102510007160316041D027F007039FB2378388464E
:10252000B4684FF000093B46002C7FF454AF002DF7
:1025300092D047F00803338382F31188BFF36F8F83
:102540004FF00009002D8CD15FE727F0070343F01F
:102550000107002335683783736033604FF001084B
:10256000A045E4D0DCE701290CBF47F0100347F099
:102570002003338382F31188BFF36F8FBDE8F087A8
:1025800027F0070335689FB2378335B347F020073C
:102590004FF0000837834546C2E76DB1738B0133B6
:1025A0009BB22946096803F1010C9E461FFA8CF381
:1025B0000029F7D1A6F81AE027F007039BB2718B28
:1025C00043F00207378311B14FF00208A8E743F048
:1025D000220737834FF00208C2E7A846A0E700BFF2
:1025E000E525000010B40C464FF02001EFF31182F6
:1025F00081F31288BFF36F8F0121446110BCFFF794
:10260000C1BE00BF70B169B10B685BB14B684BB123
:102610000023C0E90033C0E90233C0E9053301619A
:10262000184670476FF01500704700BF002869D04A
:10263000F8B50F46002962D00E1D05463046FFF75B
:102640001BFE002822D1BB6833F0030357D14FF0A3
:102650002003EFF3118283F31288BFF36F8F6B8B2C
:10266000298B4FF6FF70834201F0070430D0022C13
:102670001BD08B070CD0062C0AD0052C38D082F347
:102680001188BFF36F8F6FF00400F8BDDFDAF8BD7B
:1026900000233B606B6813B31F606F6014BB284658
:1026A0000221FFF76FFE2046F8BD01336B8382F3F2
:1026B0001188BFF36F8F00213046FFF7F1FD06460A
:1026C00020B10023394628462246B0472046F8BDAF
:1026D00082F31188BFF36F8F6FF00A00F8BDC5E970
:1026E0000077DBE7204682F31188BFF36F8FF8BDD8
:1026F00082F31188BFF36F8F6FF08500F8BD6FF024
:102700001500F8BD6FF01500704700BF10B54FF011
:102710002001EFF3118281F31288BFF36F8F048BD6
:1027200004F00704022C0AD0012C0CBF6FF0040047
:102730006FF0850082F31188BFF36F8F10BD418B5E
:10274000013989B2418309B12046F3E72146FFF7F9
:1027500019FE204610BD00BF8C460446114608B540
:102760001A466046A04722F00DFC04F0BFFE00BFF1
:10277000CB00023370B5C45AA2EB010E891A01EBEB
:1027800054014C00C4F34E0C944400EBC2054FEAD4
:102790004E06C6526C8020F832E020F83C1070BD26
:1027A000C90002314FEAC20C0CF1020C435A00B5C9
:1027B00030F80CE05B0803EB5E034FEA430E20F8B1
:1027C00001E030F80C1002EB510220F832305DF8D5
:1027D00004FB00BF00EBC10210B553885B08B3FADD
:1027E00083F3C3F11F0300EB830CDCF8104064B9E2
:1027F000C4684FF0010E0EFA03F31C438BB2C460A1
:10280000CCF810109380D38010BDE300043389B25C
:1028100030F803C0A2F804C000EBCC0CD480ACF8B4
:102820000610C15210BD00BF00EBC10CBCF8063051
:1028300099420CD0BCF80410043200EBC10C40F8F3
:10284000223000EBC300ACF8063081807047C368CB
:1028500001219140043223EA01030021C36040F8C2
:1028600022107047F8B5B1FA81F3C3F11F0200EBF3
:10287000820635698DB12C464FF0030C00EBC40E77
:10288000BEF80270B1EB570F18D9BEF8064034619C
:10289000BCF1010C01D0A542F0D1C268C3F1200304
:1028A0004FF0FF349C40144001D12046F8BD94FA0B
:1028B000A4F2B2FA82F2131D50F823402146FFF72A
:1028C000B3FF2046F8BD00BFF8B5CE00B71C0D46DB
:1028D000C15B05EB510100EBC10304465A88D307E5
:1028E0000CD5A15B691A04EBC1035A88D30714D530
:1028F00029462046BDE8F840FFF76CBF5208B2FAFF
:1029000082F2C2F11F02FFF78FFFE25B294605EB5F
:1029100052022046FFF744FFE3E75208B2FA82F280
:102920002046C2F11F02FFF77FFFA15B2046691A14
:102930002A46FFF735FFA35BED1A29462046BDE87E
:10294000F840FFF747BF00BF61B100680439091ABA
:1029500021F007030344C9085A8822F001025A8073
:10296000FFF7B2BF704700BFF8B50568C1B1AB68EB
:10297000B3EBD10F14D90B31CC0821462846FFF711
:1029800071FF68B105EBC007C6007B88B4EB530F3D
:1029900008D37B88301D43F001037B802844F8BDB9
:1029A0000020F8BD021901462846FFF7E1FE114656
:1029B000FFF710FFEDE700BF2DE9F8434D42144645
:1029C00031EA0502034605EA010940D04A46042AD5
:1029D000A1EB090628BF0422ACB31F68BB68B3EBA8
:1029E000D40F30D904F10B013144891AC908384693
:1029F000FFF738FF804630B309F1040505EBC00549
:102A0000711E3D440D4471420D40A5EB09052C4457
:102A100007342B1FDB1B24F00704E41BB0EBD30FA0
:102A20004FEAE4044FEAD30918D307EBC9067388C9
:102A300009EB53039C4220D3738843F00103738056
:102A40002846BDE8F88300252846BDE8F883042918
:102A50001CD94E4604224FF00009BDE701464A4604
:102A6000384607EBC906FFF783FE4146FFF7B2FE83
:102A7000738809EB53039C42DED24946384622460E
:102A8000FFF776FE2146FFF7A5FED5E72146BDE814
:102A9000F843FFF769BF00BFA2F1040C8C44CA1DC4
:102AA00022F007022CF0070CACEB020C30B44FEA1A
:102AB000DC050260B5FA85F0C0F12401890000242C
:102AC0000731D0F12000C2E902544FEAD10107D00A
:102AD00002F10C0303EB800043F8044F8342FBD167
:102AE000002313804B006D1A43F0010302EBC10079
:102AF00053806C0002EB0C034480012022F831105B
:102B000022F80C50588030BC1046FFF763BE00BF5F
:102B10002DE9F04F8FB04FF0000A0493561E544633
:102B2000054688467078252806F101070CD0002854
:102B300000F096803E464146A8477078252804F16B
:102B4000010406F10107F2D100274FF0FF31CDE972
:102B500002170191B31C3A461E4613F801BBBBF1A4
:102B60007A0F00F28C80DFE81BF07B008A008A007D
:102B70008A008A008A008A008A008A008A008A0005
:102B80008A008A008A008A008A008A008A008A00F5
:102B90008A008A008A008A008A008A008A008A00E5
:102BA0008A008A008A008A008A00BF018A008A009F
:102BB000BF018A000D018A008A008A008A00A101F3
:102BC000BF018A0005029A018A00920096009600D1
:102BD00096009600960096009600960096008A0051
:102BE0008A008A008A008A008A008A008A008A0095
:102BF0008A008A008A008A008A008A008A008A0085
:102C00008A008A008A008A008A008A008A008A0074
:102C10008A008A008A008A008A00A3008A008A004B
:102C20008A008A008A008A008A008A008A008A0054
:102C30001201B8008A008A008A007F00B8008A006A
:102C40008A007F008A008A008A00A3008A008A0026
:102C50006E018A00B8008A008A00A3008A007F0003
:102C600020460FB0BDE8F08FBBF1680F00F08981FE
:102C7000BBF16C0F00F06F81002A00F037814146F4
:102C80002520A847307841460234A8474AE70299F0
:102C90000029C0F21F8101990029C0F21081019919
:102CA00001EB81010BEB410BABF13001019153E7DB
:102CB000BBF1700F049B40F01B8153F8041B0020F4
:102CC000002940F0858104936FF0050301930423EC
:102CD000DFF8CC920593052767E07A2A00F040815F
:102CE0006C2A00F03D814C2A049B00F07981BBF1F5
:102CF000750F00F03A8153F8040B0493C1170B468B
:102D0000002BC0F24381202F00F050812B2F00F0C8
:102D10005981A44B069300270DF135094FF0000BA4
:102D2000059407970A22002307460C46FDF7D8F9B9
:102D3000303209F8012D0023384621460A22FDF7DA
:102D4000CFF90A2F74F10003DA460BF1FF3BE9D209
:102D5000059C079F534603F13802C3F10100019B14
:102D60000DEB0209002BA9F104097FDA039B13F094
:102D7000010F029B40F00181A3EB000B019BA3EB31
:102D8000000A7FE0414625200134A847CAE6049B9B
:102D90006FF00102019253F8042B049300238DF885
:102DA0002020059301270DF12009029BA3EB070AC0
:102DB000039B13F0020740F0E2807A4B0693BAF1CE
:102DC000010B08D40BF1FF3B41462020A847BBF183
:102DD000FF3FF7D1544477B1DDF818A00134A4EBDC
:102DE0000A0338461F464146A84707EB0A041AF86B
:102DF000010F0028F7D1019F002F09DB4146302049
:102E0000013FA847781CF9D1019B013423441C469B
:102E1000059B002B0BDB059B03F1010A09EB0A075D
:102E200019F8010B4146A847B945F9D15444BBF103
:102E300001073FF577AE41462020013FA847791CA6
:102E4000F9D15C446EE6DDF810A05AF8049B4846C0
:102E500004F0AEFC019B002B02DB9842A8BF184691
:102E6000504BCDF810A0002706930197019BA3EBD0
:102E7000000ABAF1000F029BCABF019AA3EB000B34
:102E8000A3EB020B039B13F0020F00F1FF3305933A
:102E90000AF1FF33019308BFDA469CD18FE703990B
:102EA00001F0FE0103910021019155E601990029ED
:102EB000049951F8040B49DB019004914CE6029906
:102EC00021EAE17101EB81010BEB410BABF1300128
:102ED000029141E601990029BFF6E1AE039900296C
:102EE000EDD10121039137E65F4635E65A4633E6D8
:102EF0006C2A02D04C2A00F0898053F8041B0493FA
:102F00000020232F79D0274B069300270BF0600B6E
:102F1000ABF1390B0DF1350E002302E04B46614653
:102F2000504601F00F02092A88BF5A443032102956
:102F30000EF8012D4FEA111C70F100024CEA007CE2
:102F400003F1FF394FEA101AE8D204E70028029093
:102F500032DB049100E66C2A7FF48EAE4C22FBE556
:102F6000BBF1750F049B7FF4C6AE53F8040B0493BA
:102F70000021C8E602210391EEE5019376E7D346EE
:102F800049E7682A7FF478AE4822E5E5029B013BD9
:102F900040420293044B069361EB41012D27BBE6AF
:102FA000C0660200B8770200AC660200029B013BDB
:102FB00002931D4B0693AFE640420491022102901A
:102FC0000391C9E5029B013B0293184B0693A3E6CC
:102FD000174A0692029A0493023A0292302795E722
:102FE0000733BBF1750F23F0070317D01A465B6850
:102FF00052F8080B0492194682E60E4F0C4A049BC5
:103000001BF0200F08BF3A460692E3E7073323F090
:103010000703586853F8081B049372E7596853F87C
:10302000080B04936FE600BFB0660200B4660200AE
:10303000B8660200BC66020008B54FF02002EFF34C
:10304000118382F31288BFF36F8F04F087FC03486B
:10305000FFF768F903F0DCFFFCE700BFC866020079
:10306000704700BF10B584B0BDF818400094044C00
:103070000194072402940CF0E1F804B010BD00BFE5
:10308000C80300202DE9F043D1F80C8085B0054637
:103090004046BDF830900C4616461F4604F088FBAB
:1030A00080B20290CDE900983B4632462146284640
:1030B0000CF0C4F805B0BDE8F08300BF704700BF56
:1030C0000020704710B586B0BDF820400094064C33
:1030D00024788DF81740012402940DF1170401940F
:1030E0000CF0ACF806B010BD590A002010B588B03D
:1030F00064288DF8070019D803460E480E4C03705B
:103100001822002102A804F0E1FB0DF107020123BF
:1031100002A90020CDE90342ADF814300CF06AF9A1
:1031200010F1800F08BF002008B010BD6FF015002F
:10313000FAE700BF590A0020B4670200C36A1B788F
:10314000012B70B54FF0070288BFDE1D0C4688BF0B
:103150005B4205464FF0FF008CBF1E400826FEF77D
:10316000D1FFE379834201D0002070BDAB89608834
:103170009B1B98422CBF0020012070BD2DE9F0431D
:103180001C46C36A06461B680068B6F80C805B42A2
:1031900010FA81F013EA04054FEA114189B017468D
:1031A00001FB08080AD0B06A83684146D3F804904E
:1031B0002B46C84720B9641BA8442F441CB920469D
:1031C00009B0BDE8F08339462246684604F03EFB6C
:1031D000F36A1A6819790DEB0400121B04F076FBF0
:1031E000D6E90A031B688268414654686A46A047CC
:1031F00009B0BDE8F08300BF38B505460C46FFF7BF
:103200009DFFC8B1A088C0B922884FF6FF739A42CB
:1032100012D1EA6AAB891278012A82BFD01D5242CC
:103220000240608898BF0822181AB0FBF2F302FB34
:103230001300B0FA80F0400938BD002038BD00BF4F
:103240002DE9F0470746C06A88B000685BB3C0F15B
:1032500000090D46904609F020091E4604E004F0DE
:10326000D5FA28BB361B1ED03C68B989B86A14FA57
:1032700085F42B0CB14503FB01414C4628BF344675
:10328000D0F808C023466A46DCF800A0D0470346C1
:103290002246404669462544A044002BDFD018460C
:1032A00008B0BDE8F0870023184608B0BDE8F087F5
:1032B0000123184608B0BDE8F08700BF2DE9F041B2
:1032C0008046C06A07687F4288B007F020070E4634
:1032D0001D46114668463A4604F0F8FA15B911E061
:1032E0002D1B0FD0AF423C4628BF2C46314623460B
:1032F0006A464046FFF7A4FF26440028F0D008B0F5
:10330000BDE8F081002008B0BDE8F08138B58289C1
:1033100003680D0C044602FB0531806A83689B68D4
:10332000984700B138BDE26AA38912792D04294675
:103330002046FFF7C3FF002818BF6FF0050038BD17
:10334000C36A1B78012B2DE9F04788BF5F420C68E8
:10335000DFF8789086BF07331F400827E41B04EA94
:103360000906A64282B0054688460C6010D327E0C5
:10337000FFF7E4FE48B1BDF80230BDF80420C8F8FC
:10338000004006EA090613441E44E41BB44217D960
:103390002B68A989A86A13FA84F3220C02FB013175
:1033A000D0F808C00823DCF800A06A46D0470346DE
:1033B00069462846002BDBD0184602B0BDE8F087EE
:1033C0000023184602B0BDE8F08700BF0000FFFFF1
:1033D000C36A1B78F0B5012B84BFDF1D5B420E462C
:1033E00088BF1F40096803680446808913FA81F387
:1033F0004FEA114101FB003183B0A06A98BF082752
:1034000083681D680823A847054660BB3368A08908
:103410003B449AB2C71BBA42336024D1190C03BF94
:10342000E18901F1FF3103EB0141A3F58031316006
:103430002368090C1A4400FB0121A06A83686A46CC
:103440001D680823A847054668B9E36A0DF107001F
:1034500019790DF1FF3313F8012F8A4206D19842F2
:10346000F9D163683360284603B0F0BD6946204651
:10347000FFF7C2FE38B13368BDF802201B0C1B04F5
:1034800013443360EFE731462046FFF759FF054606
:10349000E9E700BFC36A81891B782DE9F04F4568D1
:1034A000012B88BFDA1D4FEA154584BF5B4202EA53
:1034B000030B4FEA0545C38905F5803598BF4FF0EA
:1034C000080B2A0CB3EB154F08BFA5EB0245A1EB87
:1034D0000B03026895B02B4412FA83F204931B0C81
:1034E000044601FB0321806A836806AA1E6808233C
:1034F000B047011E3ADBE36A0DF11F0019790DF1A7
:10350000170313F8012F8A4234D19842F9D1D4E934
:1035100001130BEB0302914223D34FF6FF710722F5
:10352000ADF83010ADF832300CA90023FF20ADF813
:103530003430FEF7E7FD0CAA61688DF837000823E8
:103540002046FFF71BFEE36A1B78012B82BFDA1DC2
:103550005B421340626898BF0823D21A014662603A
:1035600020B929462046FFF7D1FE0146084615B08E
:10357000BDE8F08F049B06A92046A3EB0B0AFFF7DA
:103580003BFE002800F0A480049BBDF81A201B0C11
:103590001B0403EB0209CDF8109004AF394608AACA
:1035A0002046CDE9015BFFF713FF4D460146002899
:1035B000DCD108A92046FFF7C1FD88B9AA4500F073
:1035C000AD80394608AA2046049DFFF701FF014659
:1035D0000028CBD108A92046FFF7B0FD0028EDD088
:1035E0006668059604E0059B62689A4213D01E4601
:1035F0000AAA05A92046FFF7EBFE002863D1BDF813
:103600002820BDF820309A42EDD10AA92046FFF7C4
:1036100095FD0028E7D0B542D0D1BDF82430002B6D
:10362000CCD0A368BDF82280ADF822302B0C1B044F
:10363000072208A9FF209844FEF764FDE36A8DF88D
:1036400027001B68BDF824905B4203F02003B9F10A
:10365000000F4ED0CDF80CA0AB469A4613E0FFF712
:103660008DFDE36AA1681A78012A05463CD9731ECC
:103670001344524213400B44A360002D51D1B9EBC7
:103680000609B04432D02368A189A06ACA4513FA5A
:1036900088F34FEA1842564602FB013128BF4E46D6
:1036A00083680CAA1D683346A847054633460CAA12
:1036B0002046002D35D1A168002ED0D1E36A1A78BA
:1036C000012AD4D8DBE70146084615B0BDE8F08FE3
:1036D00004AF39462046FFF733FE014600287FF449
:1036E00045AFDDF8109059E73346C4E7DDF80CA08C
:1036F0005D466168082308AA2046FFF73FFDE36A9C
:103700001B78012B01460ED9DA1D5B421A40636813
:103710009B1A636000293FF451AF27E7DDE9015BA5
:10372000F5E6294622E70822F1E700BF2DE9F04F30
:1037300004468BB00D4600F11409484620F09EFA6D
:1037400028461FF087FEA062002800F0FC818368F5
:10375000DB689847E062002800F09981A06A8368DE
:10376000DB6898470368013B1F2B00F29081A06A39
:10377000216807AA1DF098FD002840F08881A389E0
:10378000002B00F08481089AB3FBF2F102FB1133A5
:10379000002B40F07C81E289012A40F27881E26AC4
:1037A000029315794FF0FF334FF0FF32484620F077
:1037B0006DFAE36A1B78012B82BFDF1D5B421F405D
:1037C000E38998BF0827002B00F07B814FF00008A9
:1037D0001FFA87FA4646A3893104A3EB0A0311FABC
:1037E00083F12A46082320460291FFF767FD014630
:1037F00008F1010C08232A462046A1B10299B4F829
:103800000EE001F58031BEEB114F4FEA114B0291F2
:1038100004BFA1EB0B4102911FFA8CF8FFF74EFD9C
:10382000002800F00381E3890136B6B29E42D2D36C
:10383000984500F046819E4200F0118102A9204681
:10384000FFF77EFD0246002840F0BC80029BDFF8B7
:10385000B882636003EA08029342A2601FD30DF1AD
:1038600013062068A1891A0C10FA83F302FB0131B8
:10387000A06A82680823D2F800A003AAD0470246B3
:10388000002840F09F800DF10B0313F8012FAA428E
:1038900040F0A3809E42F8D16268120C1204E389C2
:1038A00002F58031B3EB114F4FEA11420291A38927
:1038B00008BFA1EB024120462A4608BF0291FFF74C
:1038C000FDFC021E7EDB00F0B3806268A089BB189D
:1038D00099B2C51B8D42029340F2DD804FF6FF7511
:1038E00008E0029BA0893B4499B2C21B914202931B
:1038F00080F0D08022681B0C00FB03231944A06ACF
:10390000866805AA36680823B047024605A92046FE
:10391000002A57D1FFF712FC0028E2D0BDF814307E
:10392000AB42DED1BDF81830002BDAD16168E289F4
:10393000090C090401F58031B2EB114F02914FEAF5
:10394000114302D1A1EB034102912046FFF7DEFCB7
:103950000246002A36D1A58960687E0003462A46C1
:10396000921B9BB293424FF6FF7109D0484620F05C
:1039700011FA00220123104623740BB0BDE8F08F2A
:103980000022A368ADF81820ADF81410072205A98D
:10399000FF20ADF81630FEF7B5FB61688DF81B000F
:1039A000082305AA2046FFF7E9FBE36A1B78012BF1
:1039B00082BFD91D5B421940636898BF08215B1A1A
:1039C000024663600192484620F0E4F9019A002A19
:1039D000CFD010460BB0BDE8F08F03A92046FFF70B
:1039E000ADFB48B9D4E90132DB1B93426360BFF4FD
:1039F00038AF1A0C120452E7E36A02991B78BDF83B
:103A00001000BDF80E20012B01EA0801024403D981
:103A1000013A1A445B421A4063680A449A42A2601F
:103A2000E2D10028E0D06FF01C02CBE7E389FFE68B
:103A3000D4E901018842034609D875E047D0E36A1A
:103A4000A0681968636801448B42A1605ED92A4668
:103A50005B1A2046FFF732FC021EEFDAB2E702994A
:103A60000823C91B2A462046FFF728FC00287FF4BC
:103A7000E5AE029BE28903F58033B2EB134F4FEAC8
:103A80001341029304BFA3EB01430293D6E66FF008
:103A900015029EE7626811462046FFF737FC024692
:103AA00000288FD16368184AA18913400B44A3EB07
:103AB00047031A40C4E901322046FFF7EBFC0246F7
:103AC00047E7484620F066F96FF02C0281E763680B
:103AD000A2897E0003EB470797427FF441AFA068BD
:103AE000190C090481423FF43BAF19462046FFF709
:103AF0000DFC024600287FF465AF63681A0C1204BF
:103B0000A260A2892CE700BF0000FFFFA58903EB9C
:103B1000470085424FEA47067FF454AF180C000473
:103B200081423FF44FAFE0E7A58900EB470CAC457D
:103B30004FEA47062A467FF413AF020C12048A426A
:103B40003FF40CAFD1E76FF0050242E72DE9F04FEB
:103B5000044689B0007C0192002800F01F819A463B
:103B6000E36A1B78012B0E4640F2B4805A4203F1FF
:103B700007090AF1FF3809EA0209984408EA02082D
:103B80004FEA8902A3899B1A9A4500F29980BAF1FB
:103B9000000F40F091806768039704E0039F63681B
:103BA000BB4200F0908004AA03A92046FFF710FC56
:103BB000054600287CD1BDF81030B342EED104A9EF
:103BC0002046FFF7BBFA0028E8D0BAF1000F40F01A
:103BD0008A80BDF81430002B6AD0B8F1000F7ED176
:103BE00004F1140B4FF0FF3358464FF0FF3220F032
:103BF0004DF8E389002B56D0DFF8A891002745E067
:103C0000CA1D484202EA00010A461A44ADF81A20C9
:103C1000A28903EA090313445B1A63604FF6FF733A
:103C2000072206A9ADF81830FF200023ADF81C309C
:103C3000FEF768FA61688DF81F00082306AA20467F
:103C4000FFF79CFAE36A1A78012A82BFD31D524219
:103C50001A40636898BF082203F580339B1AE289F3
:103C60006360B2EB134F4FEA134104BFA3EB014370
:103C7000636003EA0903A3602046FFF70BFC0028FA
:103C800040F08380E38901379F420CD0D4E90132B0
:103C900002EB08018B423AD2E26A11780129AFD8CF
:103CA00008221146B1E76FF01B05584620F072F864
:103CB000284609B0BDE8F08F019B002B7FF46BAF65
:103CC0006FF01505F4E7BAF1000FF1D0B8F1000F6D
:103CD00005D185E7D04620224FF0080952E7C844B5
:103CE0001FFA88F87CE7BDF814309A457FF475AF69
:103CF000BDF81210019A3F0C3F0439445346204648
:103D0000FFF79EFA00283FF768AF0546D0E7ADF809
:103D10001A20FF2006A90722ADF81860ADF81CA0F4
:103D20008DF81E00FEF7EEF9A1688DF81F00BAF1BC
:103D3000000F2ED05346019A2046FFF71FFAE36A80
:103D4000A1681B78012B054621D90AF1FF321A44DC
:103D50005B4213401944A160002DA6D106AA082396
:103D600061682046FFF70AFAE36A1B78012B82BFDD
:103D7000DA1D5B421A40636898BF082205469B1A09
:103D8000002808BF554663608FE705468DE7534618
:103D9000E0E7E36A1B78012BD7D8DFE76FF00C056B
:103DA00086E700BF0000FFFF00231A46FFF7CEBEE4
:103DB0002DE9F047994684B0037CBDF83080002B94
:103DC00056D0C36A92461A78012A04460E4647D94D
:103DD000D31D524213405B00A289D31A994544D89F
:103DE00067680197002506E0019B62689A4218D037
:103DF000A8451AD31F4602AA01A92046FFF7E8FAF0
:103E000058BBBDF80830B342EED102A92046FFF7F7
:103E100095F90028E8D0019B626801359A42ADB25D
:103E2000E6D1BDF80830B3421CD1BDF80C30CBB19F
:103E3000A84517D82268BDF80A10A06A1144A289C3
:103E40003F0C07FB021184684B4528BF4B46246892
:103E50005246A04708B9BDF80C0004B0BDE8F08791
:103E60001023B9E76FF00100F7E76FF01500F4E7F2
:103E70006FF00C00F1E700BF10B582B00024009491
:103E8000FFF796FF02B010BD0F4B1B68C3B10F4A7E
:103E900010B41468002C0FDD002203E0944203F1FB
:103EA000100309D093F800C0844502F10102F5D156
:103EB000002010BC0B6070476FF0010010BC704711
:103EC0006FF00C00704700BF080400205468020027
:103ED000704700BF03684A68934218D330B48C68B7
:103EE0001444A34210D2D1E90445AC4211D29B1A2A
:103EF000CA68406842F8343002EBC402651C506066
:103F000001200D6130BC7047002030BC704701209B
:103F100070476FF00B03002030BC8B61704700BF0F
:103F200070B588B004460D46C0B269461646FFF724
:103F3000ABFF00281FDB009BEBB15A680292D3E96C
:103F400002200023059307932B68039201940496A3
:103F500006931FF07FFA04460098FFF7B9FF6CB193
:103F60002046084901AA1DF0A3F9079808B9059B46
:103F70002B6008B070BD6FF01500FAE76FF012000B
:103F8000F7E700BFD53E0000F8B50E4B1F68B7B18C
:103F900004460D4616464FF0FF324FF0FF330A48F5
:103FA0001FF074FE7A6833462146966838462A46E2
:103FB000B047044604481FF0EDFE2046F8BD6FF000
:103FC0000104FAE7FC180020780B0020054B5A6822
:103FD0000021016012B1106058607047C3E9000011
:103FE000704700BFF4180020014B1860704700BFF5
:103FF000FC18002030B585B00023CDE9023305461A
:1040000001904FF0FF330D484FF0FF321FF03EFE9E
:104010000B4B1C683CB1636820461B6801A998479C
:104020002468002CF7D1284600F04EF904460348D6
:104030001FF0B0FE204605B030BD00BF780B002059
:10404000F418002010B584B0CDE9010103924FF0BF
:10405000FF330B484FF0FF321FF018FE094B1C686E
:104060003CB1636820461B6801A998472468002C6E
:10407000F7D103481FF08EFE002004B010BD00BF32
:10408000780B0020F418002000221146FFF77CBFB7
:10409000024B0022C3E90022704700BFF418002041
:1040A000024B0022C3E90022FFF7F2BF00190020F3
:1040B00070B51C4C1C4E054605E021682868143478
:1040C00003F082FB30B3B442F7D3184E18484FF0D8
:1040D000FF324FF0FF331FF0D9FD34687CB97268AE
:1040E000002405F114036C61C2B1136073601048C1
:1040F0001FF050FE204670BD6469002CEFD0286888
:1041000054F8141C143C03F05FFB0028F4D16FF04A
:104110001004ECE76FF01004204670BDC6E90033D0
:104120001446E4E738610200B06102000019002083
:10413000780B00200AB10023136080B169B10B78BD
:1041400073B1844605E03D2B07D011F8013F60466E
:1041500033B11CF8010B9842F5D00020704770472E
:1041600001782F2907D03D2903D0B1FA81F0400909
:10417000704701207047002AFBD0013010600120F9
:10418000704700BF024609B100230B606AB1137883
:10419000002033B910E02F2B09D012F8013F013075
:1041A00013B13D2BF7D17047704710467047002977
:1041B000F9D001320A607047184670472DE9F04384
:1041C000064683B0884609B100230B60244CDFF813
:1041D00094904C454FF0000517D201AF3A46216844
:1041E0003046FFF7A7FF002260B125B1296820689B
:1041F000FFF7A0FF30B1B8F1000F23D0019BC8F842
:104200000030254614344C45E8D3174B1C6814B3D2
:10421000143C01AF21683A463046FFF78BFF68B186
:104220002DB1296820680022FFF784FF30B1B8F172
:10423000000F0CD0019BC8F800302546646954B1CA
:10424000143CE7E7254614344C45C7D3DDE7254643
:104250006469002CF4D1284603B0BDE8F08300BFA8
:1042600038610200B0610200001900202DE9F0431E
:1042700085B004460C9D03900E4690461F46A5B19E
:10428000296819B103AAFFF755FFC8B1D5F8049002
:10429000B9F1000F09D0AB68009303983B46424642
:1042A0003146C84705B0BDE8F08303A92046FFF7B3
:1042B00085FF28B1846803983B4642463146A047B3
:1042C000002005B0BDE8F083F8B5164C164FBC428F
:1042D00005464FF000060FD2002229461DB1206886
:1042E000FFF728FF28B1E3681BB19847002E08BFED
:1042F00006461434BC42EFD30C4B1C6884B1143C0A
:10430000002229461DB12068FFF714FF28B1E36899
:104310001BB19847002E08BF06466469002CEED1F9
:104320003046F8BD38610200B0610200001900207B
:1043300010B5074C23780BB1002010BDFFF7B0FE7D
:1043400000F030F90028F8D10123237010BD00BF20
:10435000F62E002010B5144623460A4681880068D0
:10436000FFF78AFDA042A8BF204610BD2DE9F04FFF
:1043700097B00193002900F0AB80048F0546924668
:104380000E46002A5DD00199671CB1FA81F8B4F598
:10439000004F4FEA5818BFB266D005F10809BB4676
:1043A00021464A2303AA4846FFF766FD0346002B31
:1043B00003F1580203A930466A4421DB4FF00003A1
:1043C00002F84C3C03F000FAF0B9B8F1000F23D129
:1043D000B4F5404F79D004F58041019B524689B233
:1043E0004846FFF7B3FB002807DBB8F1000F49D1BF
:1043F0002B8FA34252D300EAE07017B0BDE8F08FD4
:1044000013F1020F08BFA346631E9BB2B3F5004F22
:10441000274622D01C46C3E72B8FA34248D0214613
:104420004846FFF7C1FC0028E7DB07F57F513F3125
:1044300089B24846FFF7B8FC00EAE07017B0BDE863
:10444000F08F671CB4F5004FBFB218BF4FF00108E2
:10445000A3D1002017B0BDE8F08FB8F1000FF8D15C
:104460005C464FF00108B3E701990029F1D000F153
:1044700008094CF201014846FFF768FB0028BCDB45
:1044800048F20104304603F093F9324603462146D0
:104490004846FFF75BFB0028AADAAEE72A4602236C
:1044A00022F8384F48464FF40041FFF74FFBA2E790
:1044B0002A46631E22F8383F4FF400410223484643
:1044C000FFF744FB0028AADA97E76FF00B0094E7A8
:1044D0006FF0150091E700BF2DE9F04F058F9BB0FD
:1044E000B5F5004F03914DD0013DDFF8B4B08246E1
:1044F00000F10808ADB244F201091AE0002204F10B
:10450000680390420DEB030405AB2ADD039800908D
:1045100004F84C2C07A85A46CDF81480ADF8187052
:10452000FFF7A4FE78BB6B1EB5F5004F9BB229D0F8
:104530001D466E1CB6B207AA31464A234046FFF715
:104540009BFC05EB0907BFB23946044601230DF178
:1045500013024046FFF790FC002C0146CEDC0028F9
:10456000E1DDBAF83830B34210D031464046FFF7AB
:104570001BFC39464046FFF717FC6B1EB5F5004F94
:104580009BB2D5D100201BB0BDE8F08F524602236C
:1045900022F8385F4FF400414046FFF7D7FAE4E7CE
:1045A0005543000070B586B0012302A9042003938F
:1045B000FFF76AFC044610B1204606B070BD04AA9D
:1045C00003A90420FFF7ACFC10F1130F0446F3D04D
:1045D00038B10C3405D0404080F311884FF004000E
:1045E00002DF0598B0F5803F37D2029E0023B16804
:1045F0001A46024491429CB203F1010302D3082BF4
:10460000F7D11C46164D7368F168A88205F10800C1
:10461000EC82AB60E963FFF789F804460028CBD150
:1046200002230DF106024FF4004105F10800FFF7E7
:1046300023FC0028A8BFBDF806300A4E08486E606B
:10464000B8BF4FF400432B87FFF7C0FC04486E60EF
:10465000FFF7CAFC204606B070BD6FF02004ABE740
:10466000081900200C0400202DE9F0432B4F2C4B9F
:104670003D7DBFF35B8F05F01F0101228A40690970
:1046800085B003EB8103D04353E8001F01EA000427
:1046900043E80046002EF7D1BFF35B8F114234D0C0
:1046A000204EDFF884C005EB450306EB830393E857
:1046B000070001AC84E807004FEA4509BCF1000F90
:1046C00026D003F07FF94FF02003EFF3118883F336
:1046D0001288BFF36F8F154B1C6854B1A2682AB1C2
:1046E0003B7D03EB430316F8230090472468002C1E
:1046F000F4D188F31188BFF36F8F4D4406EB850228
:10470000AD0000237351C2E9013305B0BDE8F08369
:104710008CF31188BFF36F8FD5E700BFA82E002060
:104720006419002054190020C57900004C1900209C
:1047300030B585B00DF1040C8CE80E00144BBFF3BE
:104740005B8F00F01F024FF0010E41090EFA02F2DA
:1047500003EB810353E8001F41EA020443E80045EC
:10476000002DF7D1BFF35B8F0A420BD1094B00EB51
:10477000400003EB80039CE8070083E807007046D5
:1047800005B030BD4FF0000E704605B030BD00BF23
:1047900060190020541900202DE9F04FB74EB84998
:1047A000347DBFF35B8F620989B09300019351F8A8
:1047B000223004F01F0901EB820243FA09F3074695
:1047C0000092D807BFF35B8F40F1A080AD4D4FEA58
:1047D000440A0AEB04034FEA830815F8232005EB8B
:1047E0008303002A00F0BB80791C76D1A64B02938C
:1047F000012A00F08880BFF35B8F1A4652E8003F21
:10480000591E42E800100028F8D1BFF35B8F012B3E
:104810000DF1140800F0B98020F076FA4FF0200373
:10482000EFF3118B83F31288BFF36F8F974B1F68E1
:1048300057B17A682AB1337D03EB430315F823009F
:1048400090473F68002FF4D18BF31188BFF36F8F2F
:104850008F4B019ABFF35B8F1344012202FA09F9CF
:1048600053E8002F42EA090243E800210029F7D16A
:10487000BFF35B8F544405EB840595E80700854B37
:1048800088E807001BB198E8070003F087F8029A50
:10489000BFF35B8F52E8003F591C42E8001000282C
:1048A000F8D1BFF35B8F002B41D06FEA0909FFF706
:1048B000DBFE009BBFF35B8F53E8002F02EA090287
:1048C00043E800210029F7D1BFF35B8F20F030FAD5
:1048D0000122104609B0BDE8F08F9A686E484FF487
:1048E00000430021E2FB03016C4A0023FBF7F8FBC5
:1048F0000121381A20F024FD15F80820624B02939C
:10490000012A7FF478AF0DF1140885E73946204677
:1049100000F046F95B4D002874D007C804EB44034F
:1049200005EB830383E807004FEA440A51E7DFF809
:1049300070B1DBF800305C1E0DD45A4D03F180439A
:10494000013B05EB830555F804090121013C00F00A
:10495000C1F8631CF7D10023CBF80030A5E7012391
:1049600003FA09F96FEA0909009BBFF35B8F53E86B
:10497000001F01EA090143E800100028F7D1BFF346
:104980005B8F104609B0BDE8F08F40461EF096FDE3
:10499000059ADFF80CB1C0EBC00002EB8003A3F175
:1049A0001C070021BA42CBF800103FF635AF039444
:1049B000384600F0D7F803463846EBB900F0E6F881
:1049C00003463846C3B900F0D7F8044621463846B6
:1049D00094B900F07FF810F1860F20F020030BD07F
:1049E000783309D0002810DBDBF800302D4A42F87C
:1049F00023700133CBF80030059B1C3F9F42D7D278
:104A0000039C09E74FEA440AE3E6DBF800305E1E48
:104A10002246039C10D403F18048224B08F1FF3852
:104A200003EB8808174658F80409013E012100F0FD
:104A300051F8721CF7D13A460AEB04039B0000219F
:104A4000E954CBF80010029BBFF35B8F53E8001FC3
:104A5000013143E800100028F8D1BFF35B8F012338
:104A600003FA09F3DB430099BFF35B8F51E8000FB2
:104A7000184041E80004002C81D0F7E7A82E002060
:104A800060190020541900201C0400204C1900203B
:104A9000641900209D7900003F420F0040420F0042
:104AA00048190020900A0020054BBFF35B8F53F894
:104AB0002000BFF35B8FB0FA80F04009704700BF61
:104AC0006819002008B9024B0B600020704700BF36
:104AD0005868020070B58569002D3CD0BFF35B8F2C
:104AE0006B68BFF35B8FDB0632D40C46042921D8F8
:104AF000DFE801F00311232803002B7A012B2DD0CE
:104B0000032B17D00126EB682146984700280BDBC2
:104B10002E72002070BD2B7A03B3EB6821469847B4
:104B200000284FF00006F3DA10F1860FF2D1023CB4
:104B3000012C0BD96FF0850070BD2B7A032B0DD0A3
:104B40000326E0E72B7A032BDCD0F3E72E7270BD4F
:104B50004FF0FF3070BD6FF0570070BD6FF0770001
:104B600070BD00BF806930B1BFF35B8F4068BFF399
:104B70005B8F00F001007047806930B1BFF35B8F3D
:104B80004068BFF35B8FC0F380007047806930B12D
:104B9000BFF35B8F4068BFF35B8FC0F300107047BB
:104BA0002DE9F04F83B08B4601A9FFF78BFF441E20
:104BB00024B2621C33D01D4EDFF874804FF40045E0
:104BC0004FF00009019B04EB440203EB820A13F847
:104BD0002200FFF769FF002742464B46D8B1DAF8BA
:104BE00004003946B446E0FB05C16046FBF778FA9D
:104BF0008446DAF808003946B646E0FB05E142464D
:104C00004B4670466746FBF76BFABBF1FF3F3844F3
:104C100007D0584505D9013C24B2631CD2D14FF0CE
:104C2000000A504603B0BDE8F08F00BF3F420F00BE
:104C300040420F008B4210B51C4601D9002010BD28
:104C400013461946224602F001FE204610BD00BF61
:104C500002F03CBEC30903EB430303EBC30383EA47
:104C60004000C0B2704700BF2DE9F0431646A9B01E
:104C700080468946402502F1240718E098470346FC
:104C80003A4608A92046D3B1B6F902C01CF11F0369
:104C900048BF0CF13E0343F3471300F053FE324686
:104CA000214618A801F084FB68B9013D07D000F047
:104CB00003FB03466C46402108A8002BDED10020F0
:104CC00029B0BDE8F083B6F90230D91D48BF03F121
:104CD0000E0148462246C91001F0A4FB96F90110C6
:104CE00018AA404601F09EFB96F9011096F90020A3
:104CF00018AB03EB820208EB010001F093FB2022CA
:104D00000021204602F0E2FD012029B0BDE8F08339
:104D10002DE9F0471C46B3F9023094F9017094F97B
:104D200000A0A4B09046DA1D48BF03F10E0204AD06
:104D300081460CAE2846D2100295039601F08EFBF8
:104D4000494614A83A4601F089FB14AB09EB070168
:104D500003EB8A003A4601F081FB2346324629469E
:104D6000284601F0C3FAB0FA80F324AA5B0902EBEB
:104D70008303019453F8882C6388013314A91BB270
:104D800000930846002301F071F914AA3946404601
:104D900001F048FB214614A801F082F802AF044656
:104DA00008220021384602F091FD202200213046E1
:104DB00002F08CFD20220021284602F087FDB4FA83
:104DC00084F0400924B0BDE8F08700BF2DE9F04F22
:104DD00085B0B3F1000800900E4617467CDD4FF019
:104DE0000009A0F1040BCE464B46CA461D46734649
:104DF0004FF0000E7446A9EB040256F8240057F851
:104E00002220A2FB0020511904F10104434162B2A7
:104E10004FF0000C28BF4FF0010C92450D46E644C0
:104E2000E9DA09F101094FFA89FAD0454BF8041F74
:104E3000DCDC4FF0FF3202EB4802904593464146DE
:104E40003DDA5FFA88F2013A0192321DCDE902267D
:104E5000C2464FF001094FFA89F0804537DD019ACB
:104E6000A2EB090C039A0C1A50FA8CFC02EB80009E
:104E7000029A0134194607EB8404734602EB8C0C4A
:104E80004FF0000E50F8042B54F8045DA2FB0525EA
:104E900051186B414FF0000628BF01268445B644E7
:104EA000F0D100980AF1010240F82A104FFA82FA74
:104EB00009F10109DA4551465FFA89F9CBDB009A1D
:104EC00002EBC80848F8043C05B0BDE8F08F19466D
:104ED00073464FF0000EE4E74FF0000E7346A8E76C
:104EE0002DE9F043A0F1040E89B006460B1F01F135
:104EF0001C04724653F8040F42F8040F9C42F9D187
:104F0000CB6A03930B6B04934B6B05938B6B0693EC
:104F10000022CB6B0793CDE90122009208AD6B46CE
:104F2000144600E01A6804EB4200904243F8040B78
:104F300004F0010218BF00222CBF144642F0010405
:104F40009D42EFD1ADF1040006F11C0C8046754680
:104F5000002255F8047F58F8043F3B4413449F4215
:104F600002F0010218BF002288BF42F00102AC45E6
:104F70002B60EED122440C6B03944C6B04948C6B2D
:104F800005940023CC6B069407AF0793044654F8AE
:104F9000048F03EB4805A84503F0010318BF002365
:104FA00088BF43F00103A7422560F0D102EB03095B
:104FB0007446002254F8045F50F8043F2B44134415
:104FC0009D4202F0010218BF002288BF42F0010298
:104FD000A4452360EED191444A6A01928A6A029202
:104FE0008A6B0F6A06920023CA6B039301A8CDE96E
:104FF0000433009707928046744601E058F8047B1A
:1050000054F8045FEA183A44954203F0010318BFCC
:10501000002388BF43F00103A4452260EED14A6B10
:10502000039206928A6A0192CA6A02928A6B049279
:10503000CA6B05924B440A6AD1F824900792CDF8C6
:10504000009080467546002201E058F8049B55F810
:10505000047FBC184C44A74202F0010218BF002292
:1050600088BF42F00102AC452C60EED10C6B01947C
:105070004C6B02940C6A069400258C6A07941A44BF
:10508000CB6A0395CDE9045500938046744601E050
:1050900058F8043B54F8047FFB1A5B1B9F4205F051
:1050A000010518BF002538BF45F00105A445236060
:1050B000EED14B6B01938B6B0293CB6B03934B6ADB
:1050C0000C6B0693CB6A0793551B0094804677467A
:1050D000002301E058F8044B57F8042F141BE41A7E
:1050E000A24203F0010318BF002338BF43F00103BD
:1050F000BC453C60EED1EA1A8D6B0195CD6B0295F3
:105100000D6A03954D6A04958D6A4B6B05950024D5
:105110000D6B0795069400938046754601E058F89C
:10512000043B55F8047FFB1A1B1B9F4204F001044B
:1051300018BF002438BF44F00104AC452B60EED109
:10514000151BCA6B01924A6A03928A6A0492CA6A60
:105150008B6B059200244A6B07920294009372466F
:1051600001E050F8043B52F8041FCB1A1B1B994274
:1051700004F0010418BF002438BF44F00104944532
:105180001360EED12C1B28D406F1200754B9204A15
:105190003B4653F8041D52F80409884235D801D320
:1051A0009E42F6D11B4D71464FF0FF33002201E0C5
:1051B00055F8043B51F8040FC31A9B1A984202F0A9
:1051C000010218BF002238BF42F001028C450B607B
:1051D000EED1A41ADAE7E41817D00E4E71464FF05C
:1051E000FF35002301E056F8045B51F8040FC218A4
:1051F0002A44904203F0010318BF002388BF43F004
:10520000010361450A60EED1E5E709B0BDE8F0832E
:10521000786802006068020070B5046814F0010547
:105220001BD100EB82018842A1F1040314D20433A4
:10523000002153F8044D41EA5401984219604FEAA5
:10524000C471F6D345B102F18042013A50F82230E0
:1052500043F0004340F8223070BD002A22DD02F105
:10526000FF3E5FFA8EFEA1F1040C01EB8E0E0025CD
:10527000014600E00C685CF8046F2B193344A3422C
:1052800005F0010518BF002538BF45F00105E645CA
:1052900041F8043BEED100EB82018842A1F1040306
:1052A000C5D3CFE700EB82018842A1F1040338BFE8
:1052B0000025BCD370BD00BF014B1868704700BF0C
:1052C000200400204B1E5BB2002B28DB03F1010CF5
:1052D00010B500EB8C0C5AB201E0002A0BDB5CF835
:1052E000044D5FFA83FE013B11465AB2002CF4D004
:1052F0000EF1010149B281B101F18043013B50F847
:1053000023302BB100205B0800F10100FBD183B2F8
:10531000481E03EB401000B210BD084610BD81B11D
:1053200001F18043013B50F823302BB100205B0892
:1053300000F10100FBD183B2481E03EB401000B224
:1053400070470846704700BF2DE9F0439DF91CC027
:10535000BCF1000F4BDD161F0CF1FF325FFA82FE2D
:10536000051F0C1F01EB8E082F46002154F8049FE7
:1053700056F8042F4A440A44914501F0010118BF30
:10538000002188BF41F00101A04547F8042FEDD16D
:10539000A1B94FFA8EF202E00CD3511C0AD011B21F
:1053A000013A53F8214050F821108C4252B2F3D9FF
:1053B000BDE8F083BCF1000FFADD051F00211C1FC2
:1053C0000A4655F8040F54F8043FC31A9B1A984232
:1053D00001F1010102F0010248B218BF002238BFFA
:1053E00042F0010284452B60EBDCBDE8F0830CF158
:1053F000FF321406DCD47F22D1E700BF2DE9F0474D
:1054000092F900709AB0154600240A4606463B46BB
:105410000AA84FF0030A8946CDE90344CDE90544C3
:10542000CDE907440994CDF808A0FFF7CFFCD5F8E3
:10543000AC300AA930469847A74205F104081CDDA4
:10544000781EC0B2A6F1040C534606EB80000DF1A5
:10545000080E624601E05EF8043F52F8041FCB1AC2
:105460001B1B994204F0010418BF002438BF44F00C
:10547000010490421360EED1B4B94A4695F9003068
:1054800031460AA8FFF7A2FCD5F8AC300AA930468D
:1054900098470097434605F1840231463046FFF7AE
:1054A00053FF1AB0BDE8F0872C4600225CF8041FB9
:1054B00054F8043F0B441344994202F0010218BF10
:1054C000002288BF42F001026045CCF80030EDD1E7
:1054D000D3E700BF2DE9F0419DF91840002C1FDDF6
:1054E000013CE4B2071FA1F1040C01EB8406A2F118
:1054F000040E4FEA84083D4600215CF8044F5EF834
:10550000042FA21A521A944201F0010118BF00217F
:1055100038BF41F00101664545F8042FEDD109B9C6
:10552000BDE8F0811D1F4044002257F8041F55F8C4
:10553000043F0B441344994202F0010218BF0022B9
:1055400088BF42F00102B8423B60EED1BDE8F08175
:105550002DE9F04F93F900A0BAF1000FA5B040F388
:1055600015810AF1FF35EDB2A2F104099846AB00AE
:105570001746029302EB850504460E464B46002271
:1055800053F8041F9D4242EA0102F9D1002A00F0BB
:10559000FD8032465346314614A8FFF717FCD8F871
:1055A000AC3014A904A8984704AA98F90030214601
:1055B00014A8FFF70BFCD8F8AC3014A90CA8984736
:1055C00004AA114698F9003014A8FFF7FFFBD8F899
:1055D000AC3014A904A898473A4698F900303146EF
:1055E00014A8FFF7F3FBD8F8AC3014A9304698475D
:1055F0003A4698F90030394614A8FFF7E7FB08F15E
:10560000040BD8F8AC3014A9384698475B463A46A4
:1056100021462046CDF800A0FFF796FE5B463A46AD
:1056200039463846CDF800A0FFF78EFE5B463A4675
:1056300021463846CDF800A0FFF74CFF3A4698F9CE
:105640000030214614A8FFF7C1FBD8F8AC3014A9EC
:10565000204698475B46224621463846CDF800A0B2
:10566000FFF772FE3A462146CDF800A05B46204681
:10567000FFF76AFE216811F0010200F08A80029BA8
:10568000CDF80CB00BEB03024046A4460023934632
:1056900001E0DCF8001050F8042F03EB010E724417
:1056A0008A4203F0010318BF002338BF43F001030F
:1056B00058454CF8042BECD104EB8A029442DDF8F7
:1056C0000CB04FEA8A000BD200219C4652F8043DF0
:1056D00041EA5301944211604FEAC371F6D3634625
:1056E0000438225842EAC37323502246214698F9CF
:1056F000003014A8FFF76AFBD8F8AC3014A938467C
:1057000098475B460CAA39463846CDF800A0FFF70B
:10571000E1FE5B460CAA39463846CDF800A0FFF7FB
:10572000D9FE0CA908463A465B46CDF800A0FFF723
:10573000D1FE0CAA214698F9003014A8FFF746FBC9
:105740002046D8F8AC3014A9984704AA5B462146F5
:10575000CDF800A01046FFF7BDFE043C4B4653F8C1
:10576000042F44F8042FAB42F9D1029A331F164498
:105770001A4652F8041F49F8041F9642F9D104AAA8
:1057800052F8041B43F8041F9E42F9D125B0BDE82E
:10579000F08F04EB8A039C42A7D253F8041D42EA1F
:1057A00051029C421A604FEAC172F6D39DE700BFD6
:1057B0002DE9F047AAB09046329D2F46994617F939
:1057C000046B00968A46044602463B46414602A8C0
:1057D000FFF780FE02AA114695F900301AA8FFF7DC
:1057E000F5FAD5F8AC301AA902A8984702AA95F99B
:1057F000003021461AA8FFF7E9FAD5F8AC301AA90B
:105800002046984702AA95F9003041461AA8FFF7AA
:10581000DDFAD5F8AC301AA9404698473B465246C7
:10582000494602A80096FFF78FFD3B46524649467F
:1058300048460096FFF74EFE3B46224641460AA8E0
:105840000096FFF747FE0AAA95F9003051461AA8BC
:10585000FFF7BCFAD5F8AC301AA9504698473B463A
:10586000424621460AA80096FFF76EFD4A4695F982
:10587000003049461AA8FFF7A9FAD5F8AC301AA9A2
:10588000404698473B460AAA414640460096FFF7E5
:1058900021FE42463B46214612A80096FFF71AFE1B
:1058A00012AA95F9003049461AA8FFF78FFAD5F8E1
:1058B000AC301AA9484698473B46524649464846A6
:1058C0000096FFF707FE02AA114695F900301AA8C4
:1058D000FFF77CFAD5F8AC301AA912A8984712A99C
:1058E00008463B460AAA0096FFF7F4FD3B462246CF
:1058F00012A90AA80096FFF7EDFD02AA95F900305B
:105900000AA91AA8FFF762FAD5F8AC301AA90AA8B2
:10591000984700963B460AA952465046FFF7DAFDE3
:10592000002E0CDD013EF6B2231F0DF1480C04EBF6
:1059300086045CF8042B43F8042FA342F9D12AB063
:10594000BDE8F0872DE9F04FA9B01E46049318ABCF
:10595000CDE905030D461046314614460795FFF77D
:10596000B1FCC0EB861636B2002EB4BF06F11F03A1
:105970003346724243F3471702F01F0206F01F003E
:1059800058BF5042002F4FEA63130ADD013BD9B2E2
:1059900009AB03EB8101002208AB43F8042B9942C9
:1059A000FBD1002840F3A880049B002B00F0B980B5
:1059B00008A904EB830C2246029101EB8707C0F192
:1059C000200E002352F8044B04FA00F10B439445D7
:1059D00047F8043B24FA0EF3F4D1002E79DB049B44
:1059E000029A03F1FF3802EB830ED54328AA7544CF
:1059F00002EB8808AEF1040225F0030503920EEBDA
:105A00008302AEEB0505019228AA5C00083D012740
:105A100002EB8309002CD8BF002028DD28AAC7F19B
:105A2000010302EB830353F888BC02EB87030022D7
:105A300053F888AC1046134628A901EB83030FFAEC
:105A400082FC53F8803C5AF82C100344CB1A02F124
:105A500001024BF82C3052B234BF4FF0010C4FF022
:105A6000000C994218BF6046A2421346E4DB029B39
:105A70003F1AB7FA87F79E454FEA57170AD9039A94
:105A80000023116843EA510342F80439AA424FEA5D
:105A9000C173F6D159F8802C58F8803C43EAC273A0
:105AA00048F8803C019B73450AD9019A002352F8BB
:105AB000041D43EA5103964513604FEAC173F6D3C0
:105AC000013E36B2731CA5D128AB03EB870757F80C
:105AD000885C049B002B0CDD591E059AC9B22B1F54
